:100000000C9458000C9480000C9480000C94800098
:100010000C9480000C9480000C9480000C94800060
:100020000C9480000C9480000C9480000C94800050
:100030000C9480000C9480000C9480000C94800040
:100040000C9489070C9480000C9480000C94800020
:100050000C9480000C9480000C9480000C94800020
:100060000C94FA070C948000000000002500280082
:100070002B00040404040404040402020202020229
:10008000030303030303010204081020408001025C
:1000900004081020010204081020000000080002DB
:1000A0000100000304070000000000000000060B30
:1000B00011241FBECFEFD8E0DEBFCDBF24E0A0E704
:1000C000B2E001C01D92A03CB207E1F712E0A0E04F
:1000D000B1E0E4E1FFE102C005900D92A037B10765
:1000E000D9F710E0C8E5D0E004C02197FE010E94D6
:1000F000770DC735D107C9F70E94DA090C94880F2C
:100100000C94000090E0FC01E656FF4F2491FC01A6
:10011000EA57FF4F3491FC01EE58FF4FE491EE2374
:10012000B1F1222339F1233091F038F42130A9F0D4
:10013000223001F584B58F7D12C0273091F0283030
:10014000A1F02430B9F4809180008F7D03C08091AC
:1001500080008F77809380000DC084B58F7784BD39
:1001600009C08091B0008F7703C08091B0008F7D6F
:100170008093B000F0E0EE0FFF1FE859FF4FA5910C
:10018000B4918FB7F894EC91E32BEC938FBF089563
:100190008F929F92AF92BF92CF92DF92EF92FF9297
:1001A0006B017C010E9464074B015C01C114D10406
:1001B000E104F104F1F00E946407DC01CB0188192D
:1001C0009909AA09BB09883E9340A105B10570F3BE
:1001D00021E0C21AD108E108F10888EE880E83E018
:1001E000981EA11CB11CC114D104E104F10419F73B
:1001F000DDCFFF90EF90DF90CF90BF90AF909F90BA
:100200008F9008952F923F924F925F926F927F92BC
:100210008F929F92AF92BF92CF92DF92EF92FF9216
:100220000F931F93CF93DF93CDB7DEB7CD5FD3404E
:100230000FB6F894DEBF0FBECDBF5C019E012F5FED
:100240003F4F390188EE93E0F9019C011192215052
:100250003040E1F77E013FE0E31A3CEFF30A85E02E
:10026000F70111928A95E9F78E0107511C4F80E240
:10027000F80180831182F501C480D580FFEFCF1A89
:10028000DF0AB601C5010E94D307882369F0F50192
:100290002081318184819581B801820F931F0E9452
:1002A000720FF501D582C482F501C480D580C114D6
:1002B000D10489F0C60101978C159D0508F46C01E5
:1002C000F50160817181A601C3010E94790FF301DC
:1002D000EC0DFD1D108290E0C12CD12CF30180812A
:1002E000282F2F7D09F061C43C2CF70121808081EB
:1002F000923009F07DC00E94B8092C01E2E9F4E0D7
:10030000A12CB12C8191281651F02FEFA21AB20A1C
:1003100035E0A316B104B1F7AA24AA94BA2C822D11
:100320000E94C909CA50DC4F99838883C65FD340B5
:10033000B7FC35C0F501EE0FFF1FE956FB4F60819A
:100340007181F201EE0FFF1FE459FB4FA80180817C
:1003500091810E949F09B801809145030E947F0905
:100360008091450390914603892B11F40E94450921
:1003700060E0832D0E9450096091450389E393E07A
:100380000E943F0980914503909146038730910573
:1003900014F4019606C1079709F00EC109C1CA50AD
:1003A000DC4F88819981C65FD34097FDCFC3809190
:1003B0004503909146038730910511F0892B31F464
:1003C00010924603109245030E944509F201EE0F78
:1003D000FF1FE459FB4F60817181809145030E94AA
:1003E0007F09CA50DC4FE881F981C65FD34067C0FE
:1003F000F7015280933009F041C10E94B809CA50F8
:10040000DC4F99838883C65FD340852D0E94B8094D
:10041000C850DC4F99838883C85FD340E2E9F4E099
:10042000A12CB12C8191281651F02FEFA21AB20AFB
:1004300035E0A316B104B1F7AA24AA94BA2C822DF0
:100440000E94C909C650DC4F99838883CA5FD34094
:10045000852D0E94C9092C01B7FCB9C09501215511
:100460003F4FCA50DC4F88819981C65FD340880FC7
:10047000991F220F331FF901E75CFC4F60817181E6
:10048000FC01E459FB4FA8018081918157FC45C0D4
:100490000E949F0980914503909146038730910502
:1004A00011F0892B31F410924603109245030E94FB
:1004B0004509B801809145030E947F09F201EE0FC2
:1004C000FF1FE655FB4F60817181809145038F5F6F
:1004D0000E947F0960E0832D0E94500960914503CE
:1004E00089E393E00E943F0960E081E0830D0E9470
:1004F0005009609145036F5F89E393E00E943F09D3
:1005000080914503909146038630910514F402963C
:1005100007C3069709F00FC30AC30E949F09809181
:100520004503909146038730910511F0892B31F4F2
:100530000E9445091092460310924503B80180912C
:1005400045030E947F09C850DC4FE881F981C85FEC
:10055000D340EE0FFF1FE459FB4F60817181809102
:1005600045038F5F0E947F0960E0832D0E94500940
:100570006091450389E393E00E943F0961E0832D88
:100580000E945009609145036F5F89E393E00E94E8
:100590003F0980914503909146038630910534F4DC
:1005A0000296909346038093450306C0069721F474
:1005B00010924603109245036091470370914803DF
:1005C000072E000C880B990B0E94C800C3C2C650AE
:1005D000DC4F88819981CA5FD34097FDB7C2809173
:1005E0004503909146038630910514F4892B31F42C
:1005F00010924603109245030E944509CA50DC4FF1
:10060000E881F981C65FD340EE0FFF1FE459FB4F2D
:1006100060817181809145030E947F09C650DC4F43
:10062000E881F981CA5FD340EE0FFF1FE655FB4F0B
:1006300060817181809145038F5F0E947F09C8505E
:10064000DC4FE881F981C85FD340EE0FFF1FE4590A
:10065000FB4F60817181809145038E5F0E947F090D
:1006600060E0832D0E9450096091450389E393E087
:100670000E943F0960E081E0830D9CC0F701B380D8
:10068000943009F095C10E94B809CA50DC4F998393
:100690008883C65FD340852D0E94B809C850DC4FBF
:1006A00099838883C85FD3408B2D0E94B809C650B8
:1006B000DC4F99838883CA5FD340E2E9F4E0A12C40
:1006C000B12C8191281651F02FEFA21AB20A35E011
:1006D000A316B104B1F7AA24AA94BA2C822D0E94C1
:1006E000C909C450DC4F99838883CC5FD340852DE2
:1006F0000E94C9092C01B7FCC6C099249394930C9D
:10070000C50181559F4FCA50DC4F28813981C65F92
:10071000D340220F331FC650DC4FA880B980CA5F78
:10072000D340AA0CBB1C880F991FFC01E75CFC4F4F
:1007300060817181F901E459FB4FA80180819181A9
:1007400057FC44C00E949F09809145039091460345
:100750008530910514F4892B31F4109246031092E0
:1007600045030E944509B801809145030E947F0915
:10077000F201EE0FFF1FE655FB4F60817181809102
:1007800045038F5F0E947F09F501E459FB4F6081AB
:100790007181809145038E5F0E947F0960E0832D07
:1007A0000E9450096091450389E393E00E943F094C
:1007B00060E0892D0E945009609145036F5F89E3D5
:1007C00093E00E943F0961E0832D48C00E949F0989
:1007D00080914503909146038730910511F0892B54
:1007E00031F40E9445091092460310924503B80166
:1007F000809145030E947F09C850DC4FE881F98150
:10080000C85FD340EE0FFF1FE459FB4F6081718139
:10081000809145038F5F0E947F09F501E459FB4FEA
:1008200060817181809145038E5F0E947F0960E045
:10083000832D0E9450096091450389E393E00E9453
:100840003F0961E0832D0E945009609145036F5F6D
:1008500089E393E00E943F0961E0892D0E945009DD
:10086000609145036E5F89E393E00E943F098091A8
:10087000450390914603853091050CF450C10597CE
:1008800009F059C154C1C450DC4F88819981CC5FB3
:10089000D34097FD5BC1809145039091460384301E
:1008A000910514F4892B31F41092460310924503FC
:1008B0000E944509CA50DC4FE881F981C65FD340E8
:1008C000EE0FFF1FE459FB4F60817181809145035A
:1008D0000E947F09C450DC4FE881F981CC5FD3408E
:1008E000EE0FFF1FE655FB4F60817181809145033C
:1008F0008F5F0E947F09C850DC4FE881F981C85F93
:10090000D340EE0FFF1FE459FB4F6081718180914E
:1009100045038E5F0E947F09C650DC4FE881F98154
:10092000CA5FD340EE0FFF1FE459FB4F6081718116
:10093000809145038D5F0E947F0960E0832D0E94B6
:1009400050096091450389E393E00E943F09BB246D
:10095000B394B30C60E08B2D0E9450096091450365
:100960006F5F89E393E00E943F0961E0832D0E945D
:100970005009609145036E5F89E393E00E943F094F
:1009800061E08B2D0E945009609145036D5F89E302
:1009900093E00E943F098091450390914603843083
:1009A000910514F40496BCC0049709F0C4C0BFC0FC
:1009B000953009F0CBC00E94B809CA50DC4F99832A
:1009C0008883C65FD340E2E9F4E0812C912C8191C9
:1009D000281651F09FEF891A990A25E08216910492
:1009E000B1F788248A94982CF7012480852D0E94E1
:1009F000C9092C018B2D0E94B8095C01822D0E942F
:100A0000B809C850DC4F99838883C85FD340F4018C
:100A1000EE0FFF1FE956FB4F60817181CA50DC4F1A
:100A2000E881F981C65FD340EE0FFF1FE459FB4F09
:100A3000A801808191810E949F0980914503909136
:100A400046038430910514F4892B31F41092460347
:100A5000109245030E944509B801809145030E9408
:100A60007F09F201EE0FFF1FE655FB4F6081718198
:100A7000809145038F5F0E947F09F501EE0FFF1FF4
:100A8000E459FB4F60817181809145038E5F0E9424
:100A90007F09C850DC4FE881F981C85FD340EE0F71
:100AA000FF1FE459FB4F60817181809145038D5F89
:100AB0000E947F0960E0832D0E94500960914503E8
:100AC00089E393E00E943F09BB24B394B30C60E038
:100AD0008B2D0E945009609145036F5F89E393E07D
:100AE0000E943F0961E0832D0E94500960914503F7
:100AF0006E5F89E393E00E943F0961E08B2D0E94C5
:100B00005009609145036D5F89E393E00E943F09BE
:100B100080914503909146038330910534F4039608
:100B2000909346038093450306C0039721F41092E7
:100B30004603109245036091470370914803072EC6
:100B4000000C880B990B0E94C8000FC0F2E08F16B2
:100B5000910459F02FE0C216D10491F03FEFC31A6F
:100B6000D30A88248394912C14C08EE0C816D10433
:100B70005CF492E0C90ED11C22E0822E912C09C0B7
:100B800088248394912C03C082E0882E912CC12C60
:100B9000D12CF70110821182128213821482F30188
:100BA0008081882371F090E005C0F701E90FF11D05
:100BB00080839F5FFFEF6F1A7F0A6016710609F04E
:100BC0008DCBC350DC4F0FB6F894DEBF0FBECDBF48
:100BD000DF91CF911F910F91FF90EF90DF90CF9019
:100BE000BF90AF909F908F907F906F905F904F904D
:100BF0003F902F90089508950895CF92DF92EF923D
:100C0000FF920F931F93CF93DF936C017A018B01B7
:100C1000C0E0D0E0CE15DF0581F0D8016D918D01E7
:100C2000D601ED91FC910190F081E02DC60109956E
:100C3000892B11F02196EECF7E01C701DF91CF9174
:100C40001F910F91FF90EF90DF90CF90089585ED69
:100C50008093BC008091BC0084FDFCCF10921F03E8
:100C600008954091D202262F30E0240F311D213209
:100C70003105DCF420911F032430C9F4FC0180E02D
:100C800090E0861758F43091D2022191DC01AE54E5
:100C9000BD4FA30FB11D2C930196F3CF8091D202CB
:100CA000680F6093D20280E0089581E0089582E0A9
:100CB00008950895E091230380912203E81730F40A
:100CC000F0E0EE56FD4F808190E008958FEF9FEFAA
:100CD00008959091230380912203981750F4E92FEF
:100CE000F0E0EE56FD4F208130E09F5F90932303AC
:100CF00002C02FEF3FEFC90108958091220390E0D9
:100D000020912303821B91090895CF92DF92EF92E5
:100D1000FF920F931F93CF93DF937C01CB018A0146
:100D200020919102222389F0EB016B01C40ED51EA4
:100D3000CC15DD0569F06991D701ED91FC91019029
:100D4000F081E02DC7010995F3CF642F0E94310691
:100D5000C801DF91CF911F910F91FF90EF90DF902D
:100D6000CF900895CF93DF931F92CDB7DEB76983FD
:100D7000209191022223D1F020912003203240F0D3
:100D800021E030E0FC013383228380E090E015C055
:100D900080912103E82FF0E0EF58FD4F9981908377
:100DA0008F5F809321038093200305C061E0CE0113
:100DB00001960E94310681E090E00F90DF91CF9183
:100DC0000895CF93FC01C48121E020939102C09348
:100DD000700210922103109220038385682B8DE20C
:100DE00093E00E94B20690912003913208F045C032
:100DF00080911F038111FCCF82E080931F0381E06B
:100E000080931E038FEF8093F50210921703909347
:100E10001603A1E7B2E0E6EFF2E080E0981721F0D8
:100E20002D9121938F5FFACF1092180380911803B0
:100E3000CC0FC82BC093180380911D03813061F43F
:100E400010921D03809118038093BB008091BC0019
:100E500083FDF8CF85EC01C085EE8093BC008091C6
:100E60001F038230E1F38091F5028F3F31F08091D2
:100E7000F502803211F08091F50210922103109258
:100E8000200310929102CF9108950F931F93CF9357
:100E90008C01C62F0E94E1066C2F6460C8010E947D
:100EA000E1066C2F6B7FC8010E94E10683EC90E0A5
:100EB0000197F1F7CF911F910F910895089580E068
:100EC00090E008950E94640F3FB7F8948091290341
:100ED00090912A03A0912B03B0912C0326B5A89BD7
:100EE00005C02F3F19F00196A11DB11D3FBFBA2FBC
:100EF000A92F982F8827820F911DA11DB11DBC011C
:100F0000CD0142E0660F771F881F991F4A95D1F7E0
:100F100008951F920F920FB60F9211242F933F93B3
:100F20008F939F93AF93BF93809125039091260356
:100F3000A0912703B09128033091240323E0230FCD
:100F40002D3720F40196A11DB11D05C026E8230F01
:100F50000296A11DB11D2093240380932503909335
:100F60002603A0932703B09328038091290390912F
:100F70002A03A0912B03B0912C030196A11DB11D52
:100F80008093290390932A03A0932B03B0932C03FF
:100F9000BF91AF919F918F913F912F910F900FBE75
:100FA0000F901F9018950F931F93CF93DF93EC0131
:100FB00088819981009729F02A813B81261737077C
:100FC00088F48B016F5F7F4F0E949E0E009761F047
:100FD000998388831B830A832C813D81232B11F401
:100FE000FC01108281E001C080E0DF91CF911F9170
:100FF0000F9108951F920F920FB60F9211242F9305
:101000003F934F935F936F937F938F939F93AF9390
:10101000BF93EF93FF938091B900887F803609F4E6
:101020009CC068F5883209F45BC090F4803109F403
:1010300054C038F4882309F4F6C0883009F44DC050
:10104000F6C0883109F44CC0803209F45DC0EFC0AD
:10105000803409F468C048F4803309F455C08833FB
:1010600009F0E5C08093F502D8C0803509F44FC07F
:10107000883509F45DC0883409F0D9C0D6C08839F4
:1010800009F4C7C0A8F4883709F467C038F4883673
:1010900009F463C0803709F460C0C9C0883809F416
:1010A000B8C0803909F45FC0803809F0C0C05BC0A7
:1010B000803B09F486C038F4803A09F466C0883A67
:1010C00009F47FC0B4C0803C09F4A7C0883C09F48F
:1010D000A4C0883B09F48AC0AAC08091180310C03C
:1010E0009091170380911603981770F5E0911703FC
:1010F00081E08E0F80931703F0E0EA50FD4F80816E
:101100008093BB0085EC86C08093F5028EC0E09191
:10111000170381E08E0F809317038091BB00F0E0EE
:10112000EA50FD4F808390911703809116036EC0A3
:10113000E091170381E08E0F809317038091BB002D
:10114000F0E0EA50FD4F808380911E0381116DC055
:1011500081E080931D0384EA61C083E080931F03D4
:101160001092F402CFCF8091F402803208F051C087
:10117000E091F40281E08E0F8093F4028091BB0035
:10118000F0E0EC52FD4F8083BDCF85EC8093BC0036
:1011900010921F038091F402803230F4E091F40247
:1011A000F0E0EC52FD4F10826091F40270E0E091AB
:1011B0001903F0911A0384ED92E009951092F4025C
:1011C00036C084E080931F031092D3021092D202A3
:1011D000E0911B03F0911C0309958091D2028111CB
:1011E00005C081E08093D2021092B202E091D30256
:1011F00081E08E0F8093D302F0E0EE54FD4F8081AA
:101200008093BB009091D3028091D202981708F48A
:1012100079CF85E88093BC000AC085EC8093BC0040
:1012200010921F0304C01092F5020E942706FF913E
:10123000EF91BF91AF919F918F917F916F915F914E
:101240004F913F912F910F900FBE0F901F901895C7
:101250000F931F93CF93DF938C01C62FD42F607F02
:10126000642B0E94450780E1C89FB00111246D2BBB
:10127000C801DF91CF911F910F910C94450741E078
:101280000E94280981E090E0089540E061E089E350
:1012900093E00E9428098BE39FE10197F1F70895FD
:1012A000CF93DF93CDB7DEB728970FB6F894DEBFA4
:1012B0000FBECDBF98E0E7E2F2E0DE0111960190AB
:1012C0000D929A95E1F790914103961710F46FEF04
:1012D000690FFE013196E60FF11DE60FF11D6081E9
:1012E000680F606840E089E393E028960FB6F894B1
:1012F000DEBF0FBECDBFDF91CF910C9428090F93B5
:101300001F93CF93DF938B01877098E0899FB00183
:101310001124606440E089E393E00E942809E80119
:10132000085F1F4F699189E393E00E943F09C0174E
:10133000D107C1F7DF91CF911F910F910895CF93FE
:10134000DF93FA01DB0120E030E0253031051CF4A9
:10135000EC01488101C04C9140832F5F3F4F0196C3
:10136000319611962830310581F7DF91CF9108959C
:10137000E9E5F4E020E030E09191981741F02F5F2B
:101380003F4F23313105C1F78FEF9FEF0895C9011A
:101390000895E1EAF4E020E030E09191981302C072
:1013A000C90108952F5F3F4F29303105B1F78FEF05
:1013B0009FEF0895CF93DF9300D000D000D0CDB73A
:1013C000DEB7789484B5826084BD84B5816084BDC5
:1013D00085B5826085BD85B5816085BD80916E00D3
:1013E000816080936E001092810080918100826004
:1013F0008093810080918100816080938100809141
:1014000080008160809380008091B100846080932F
:10141000B1008091B00081608093B00080917A002B
:10142000846080937A0080917A00826080937A0051
:1014300080917A00816080937A0080917A00806840
:1014400080937A001092C10010922303109222031D
:10145000109221031092200310921F0381E08093C9
:101460001E0310921D0382E10E94820083E10E940C
:1014700082008091B9008E7F8093B9008091B9007D
:101480008D7F8093B90088E48093B80085E48093D1
:10149000BC008BEF95E090931C0380931B038CEFB3
:1014A00095E090931A038093190310923E03809164
:1014B0004303823018F098E090933E0380934103F9
:1014C00062E370E080E090E00E94C8006091440315
:1014D00089E393E00E94E10668EE73E080E090E02B
:1014E0000E94C80060E389E393E00E9445070BE493
:1014F00016E4C8010197F1F760E389E393E00E94E5
:101500004507C8010197F1F760E389E393E00E9482
:10151000450783E592E00197F1F760E289E393E004
:101520000E94450760913E03606240E089E393E0DA
:101530000E94280984E080933F0340E06CE089E347
:1015400093E00E9428090E94450982E080934003AD
:1015500040E066E089E393E00E94280940E062E011
:1015600089E393E00E9428098BE39FE10197F1F75B
:1015700088E08093440360E089E393E00E94E10601
:1015800088EE93E090934803809347031A82198270
:101590001C821B821E821D8266E170E0CE010196D4
:1015A0000E94D30729813A8181110DC0211531058F
:1015B00019F0C9010E94150E1A8219821E821D821D
:1015C0001C821B8209C086E190E09E838D836DE4BE
:1015D00072E0C9010E94720FCE0101960E940201C1
:1015E00089819A810E94150E0E9445094AE050E0C7
:1015F00064E672E089E393E00E94FD0500E010E0FC
:1016000001151105E9F30E940000FACFCF93DF9393
:10161000EDE2F3E01382128288EE93E0A0E0B0E006
:1016200084839583A683B78383E392E09183808349
:10163000C9E3D3E01B821A8285E492E09983888310
:101640001D861C8684EF91E09F878E8728E0E9E461
:10165000F3E0DF01822F1D928A95E9F788E0E6E04A
:10166000F1E0A1E5B3E001900D928A95E1F788E001
:10167000EEE0F1E0A9E5B3E001900D928A95E1F783
:1016800088E0E6E1F1E0A1E6B3E001900D928A95F1
:10169000E1F788E0EEE1F1E0A9E6B3E001900D9218
:1016A0008A95E1F788E0E6E2F1E0A1E7B3E0019096
:1016B0000D928A95E1F788E0EEE2F1E0A9E7B3E068
:1016C00001900D928A95E1F788E0E6E3F1E0A1E868
:1016D000B3E001900D928A95E1F788E0EEE3F1E046
:1016E000A9E8B3E001900D928A95E1F788E0E6E47D
:1016F000F1E0A1E9B3E001900D928A95E1F788E06D
:10170000EEE4F1E0A9E9B3E001900D928A95E1F7EA
:1017100088E0E6E5F1E0A1EAB3E001900D928A9558
:10172000E1F788E0EEE5F1E0A9EAB3E001900D927F
:101730008A95E1F788E0E6E6F1E0A1EBB3E00190FD
:101740000D928A95E1F788E0EEE6F1E0A9EBB3E0CF
:1017500001900D928A95E1F788E0E6E7F1E0A1ECCF
:10176000B3E001900D928A95E1F788E0EEE7F1E0B1
:10177000A9ECB3E001900D928A95E1F788E0E6E8E4
:10178000F1E0A1EDB3E001900D928A95E1F788E0D8
:10179000EEE8F1E0A9EDB3E001900D928A95E1F752
:1017A00088E0E6E9F1E0A1EEB3E001900D928A95C0
:1017B000E1F789EE93E0DC011D922A95E9F72FE12C
:1017C0002093EF0328E0EEE9F1E0A1EFB3E0019010
:1017D0000D922A95E1F728E0E6EAF1E0A9EFB3E0FF
:1017E00001900D922A95E1F728E0EEEAF1E0A1E000
:1017F000B4E001900D922A95E1F728E0E6EBF1E0E4
:10180000A9E0B4E001900D922A95E1F728E0EEEB13
:10181000F1E0A1E1B4E001900D922A95E1F728E012
:10182000E6ECF1E0A9E1B4E001900D922A95E1F730
:1018300028E0EEECF1E0A1E2B4E001900D922A95EF
:10184000E1F728E0E6EDF1E0A9E2B4E001900D92C5
:101850002A95E1F728E0EEEDF1E0A1E3B4E0019094
:101860000D922A95E1F728E0E6EEF1E0A9E3B4E075
:1018700001900D922A95E1F728E0EEEEF1E0A1E467
:10188000B4E001900D922A95E1F728E0E6EFF1E04F
:10189000A9E4B4E001900D922A95E1F728E0EEEF7B
:1018A000F1E0A1E5B4E001900D922A95E1F723E182
:1018B000E6E0F2E0A9E5B4E001900D922A95E1F7A7
:1018C00021E533E030936D0420936C0429E533E087
:1018D00030936F0420936E0421E633E0309371045B
:1018E0002093700429E633E030937304209372044C
:1018F00021E733E0309375042093740429E733E043
:10190000309377042093760421E833E03093790410
:101910002093780429E833E030937B0420937A0401
:1019200021E933E030937D0420937C0429E933E0FE
:1019300030937F0420937E0421EA33E030938104C6
:101940002093800429EA33E03093830420938204B7
:1019500021EB33E0309385042093840429EB33E0BA
:10196000309387042093860421EC33E0309389047C
:101970002093880429EC33E030938B0420938A046D
:1019800021ED33E030938D0420938C0429ED33E076
:1019900030938F0420938E0421EE33E03093910432
:1019A0002093900425E0E9E1F2E0A2E9B4E001909F
:1019B0000D922A95E1F7909398048093970481EF14
:1019C00093E090939A048093990489EF93E0909325
:1019D0009C0480939B0481E094E090939E04809308
:1019E0009D0489E094E09093A00480939F0489E093
:1019F000EEE1F2E0A1EAB4E001900D928A95E1F700
:101A000081E194E09093AB048093AA0489E194E08F
:101A10009093AD048093AC0481E294E09093AF0482
:101A20008093AE0489E294E09093B1048093B00473
:101A300081E394E09093B3048093B20489E394E04B
:101A40009093B5048093B40481E494E09093B70438
:101A50008093B60489E494E09093B9048093B80429
:101A600081E594E09093BB048093BA0487E28C8371
:101A700080E1898782E08A871B86DF91CF91089574
:101A80002F923F924F925F926F927F928F929F928E
:101A9000AF92BF92CF92DF92EF92FF920F931F937C
:101AA000CF93DF93CDB7DEB7CA1BDB0B0FB6F8942D
:101AB000DEBF0FBECDBF09942A88398848885F846D
:101AC0006E847D848C849B84AA84B984C884DF80DE
:101AD000EE80FD800C811B81AA81B981CE0FD11DC2
:101AE0000FB6F894DEBF0FBECDBFED010895EE0F27
:101AF000FF1F0590F491E02D09940F931F93CF934E
:101B0000DF938230910510F482E090E0E091BE0412
:101B1000F091BF0420E030E0A0E0B0E0309719F190
:101B2000408151810281138148175907C8F08417F9
:101B3000950769F4109731F012960C93129713964B
:101B40001C9327C00093BE041093BF0422C021152C
:101B5000310519F04217530718F49A01BD01EF013E
:101B6000DF01F801DBCF21153105F9F0281B390B16
:101B70002430310580F48A819B816115710521F043
:101B8000FB019383828304C09093BF048093BE04BF
:101B9000FE01329644C0FE01E20FF31F8193919340
:101BA00022503109398328833AC02091BC043091F6
:101BB000BD04232B41F420910201309103013093A5
:101BC000BD042093BC042091000130910101211536
:101BD000310541F42DB73EB7409104015091050104
:101BE000241B350BE091BC04F091BD04E217F30710
:101BF000A0F42E1B3F0B2817390778F0AC014E5F7D
:101C00005F4F2417350748F04E0F5F1F5093BD04F8
:101C10004093BC048193919302C0E0E0F0E0CF01D7
:101C2000DF91CF911F910F910895CF93DF9300978C
:101C300009F481C0FC01329713821282A091BE0484
:101C4000B091BF04109781F420813181820F931FDE
:101C50002091BC043091BD042817390751F5F09349
:101C6000BD04E093BC0467C0ED0120E030E0CE1776
:101C7000DF0740F44A815B819E0141155105F1F077
:101C8000EA01F5CFD383C28340815181840F951F30
:101C9000C817D90759F488819981840F951F029636
:101CA000918380838A819B8193838283211531056F
:101CB00029F4F093BF04E093BE043DC0E901FB8327
:101CC000EA8349915991C40FD51FEC17FD0761F4C0
:101CD00080819181840F951F0296E9019983888301
:101CE000828193819B838A83E0E0F0E012968D915C
:101CF0009C911397009719F0FD01DC01F7CF8D91AE
:101D00009C9111979D012E5F3F4F820F931F209151
:101D1000BC043091BD042817390769F4309729F4C1
:101D20001092BF041092BE0402C013821282B093BC
:101D3000BD04A093BC04DF91CF910895A0E0B0E072
:101D4000E4EAFEE00C94440DEC01009721F4CB0191
:101D50000E947D0DB4C0FC01E60FF71F9C012250CC
:101D60003109E217F30708F4A8C0D9010D911C91BD
:101D7000119706171707B0F00530110508F49BC03E
:101D8000C80104978617970708F495C002501109F7
:101D9000061B170B019311936D937C93CF010E9447
:101DA000150E89C05B01A01AB10A4C01800E911E6C
:101DB000A091BE04B091BF04612C712CE12CF12CD8
:101DC000109709F446C08D919C911197A815B905FB
:101DD000B1F56C0142E0C40ED11CCA14DB0478F1E9
:101DE0004C018A189B08640142E0C40ED11C129673
:101DF000BC9012971396AC91B5E0CB16D10440F08D
:101E0000B282A38391828082D9016D937C9309C0B1
:101E10000E5F1F4F800F911FF90191838083EB2D7F
:101E2000FA2FE114F10431F0D7011396FC93EE93ED
:101E3000129741C0F093BF04E093BE043CC0681603
:101E4000790608F43C017D0112960D90BC91A02DFD
:101E5000B7CF8091BC049091BD0488169906E1F437
:101E600066167706C8F480910001909101010097F1
:101E700041F48DB79EB74091040150910501841B38
:101E8000950BE817F907C8F4F093BD04E093BC0480
:101E9000F901718360830FC0CB010E947D0D7C012D
:101EA000009759F0A801BE010E94690FCE010E945F
:101EB000150EC70104C0CE0102C080E090E0CDB78E
:101EC000DEB7EEE00C94600D81E090E0F8940C94A5
:101ED000880FFB01DC0102C001900D92415050407F
:101EE000D8F70895FB01DC0101900D920020E1F785
:101EF0000895FB01DC014150504048F001900D92E3
:101F00000020C9F701C01D9241505040E0F70895EC
:041F1000F894FFCF73
:101F14000000C00480001F01010100000000101037
:101F2400101F000000001F10101F000000001F0100
:101F34001F101F0000001F11111F000000000A0ED7
:101F44000A0E0000000004040A11000000000E1B29
:101F5400111B0E0000001F040A1100000000041FE2
:101F6400040A110000001F010F01010000001F10EE
:101F74001F101F0000001F0A0A1F00000000041F9A
:101F8400040A040000001F050505000000001F14DA
:101F9400141F00000000151F151F000000000A0A8E
:101FA4001515000000001F0A1515000000000000B0
:101FB400000000041F0000000000000A1F000000D1
:101FC400000000001F040000000000001F0A0010B1
:101FD400101018101000001010181018100000082D
:101FE4000808180808000008081808180800001055
:101FF400101010101000001414141C1414000014F9
:10200400141C141C1400000A0A0A1A0A0A00000A02
:102014000A1A0A1A0A007273656661717464776336
:102024007A78766752455154576D68796E626B6958
:102034006A756C6F4F70500000400014005400002B
:10204400000000B20685065F0759067D0669065A38
:1020540006000000003F09FD055F075E076450208D
:10206400777020766B20646C6620646C7120736CCE
:1020740020656B00636F6D706C657465642100008E
:00000001FF
